:020000040800F2
:100000000805002045010008190F00082D09000807
:10001000150F0008A3030008DD1100080000000010
:100020000000000000000000000000002510000893
:100030007D060008000000001B0F00086511000885
:100040005F0100085F0100085F0100085F01000810
:100050005F0100085F0100085F0100085F01000800
:100060005F0100085F0100085F0100085F010008F0
:100070005F0100085F0100085F0100085F010008E0
:100080005F0100085F0100085F0100085F010008D0
:100090005F0100085F0100085F0100085F010008C0
:1000A0005F0100085F0100085F0100085F010008B0
:1000B0005F0100085F0100085F0100085F010008A0
:1000C0005F0100085F0100085F0100085F01000890
:1000D0005F0100085F0100085F0100085F01000880
:1000E0005F0100085F0100085F0100085F01000870
:1000F0005F0100085F0100085F0100085F01000860
:100100005F0100085F0100085F0100085F0100084F
:100110005F0100085F0100085F0100085F0100083F
:100120005F0100085F0100085F0100085F0100082F
:10013000DFF80CD000F02EF800480047F11300085B
:10014000080500200648804706480047FEE7FEE70E
:10015000FEE7FEE7FEE7FEE7FEE7FEE7FEE7FEE777
:100160007D1100083101000830B50B460146002022
:100170002022012409E021FA02F59D4205D303FA69
:1001800002F5491B04FA02F52844151EA2F10102EA
:10019000F1DC30BD064C074D06E0E06840F001039D
:1001A00094E8070098471034AC42F6D3FFF7C4FF39
:1001B000F01A0008101B000821B1826842F0010209
:1001C000826003E0826822F00102826070470000D2
:1001D00010B504461248844208D10121401500F0B0
:1001E000C9FE0021601500F0C5FE17E00D488442ED
:1001F00008D10121001500F0BDFE0021201500F0FE
:10020000B9FE0BE00848844208D10121C80300F080
:10021000B1FE00214FF4004000F0ACFE10BD000024
:100220000024014000280140003C0140014600201C
:100230008A6802F004020AB1012000E00020704741
:100240000146C86C80B270470246002013680B401C
:100250000BB1012000E000207047014600208A68B1
:1002600002F008020AB1012000E0002070470000FF
:1002700030B502460020002350680F4C20400D7915
:100280000C6844EA05242043506090680B4C2040E1
:10029000D1E902542C434D7944EA4504204390604F
:1002A000D06A20F470000C7C641EE4B2234340EA60
:1002B0000350D06230BD0000FFFEF0FFFDF7F1FFFC
:1002C000F0B504460D4600200021092D11DDE0683F
:1002D000A5F10A0606EB4607072606FA07F188434A
:1002E000A5F10A0606EB460603FA06F10843E060AC
:1002F0000CE0206905EB4507072606FA07F188435D
:1003000005EB450603FA06F108432061072A0FDAD8
:10031000606B561E06EB86071F2606FA07F1884318
:10032000561E06EB860605FA06F10843606322E0D6
:100330000D2A0FDA206BD61F06EB86071F2606FA5A
:1003400007F18843D61F06EB860605FA06F1084337
:10035000206310E0E06AA2F10D0606EB86071F2677
:1003600006FA07F18843A2F10D0606EB860605FAA8
:1003700006F10843E062F0BD816841F00801816048
:10038000704721B1826842F4A002826003E0826873
:1003900022F4A00282607047816841F0040181600C
:1003A000704700BFFEE7000000210020424B18709C
:1003B00011E0414800784006000E3F4B18703F485E
:1003C00030F81100072804DD1846007840F00100DD
:1003D0001870481CC1B20829EBDB0020384B18709C
:1003E00011E0374800784006000E354B187033484E
:1003F00030F81100072804DD1846007840F00100AD
:100400001870481CC1B21029EBDB00202D4B18706E
:1004100011E02C4800784006000E2A4B187027483F
:1004200030F81100072804DD1846007840F001007C
:100430001870481CC1B21829EBDB0020224B187041
:1004400011E0214800784006000E1F4B18701B4831
:1004500030F81100072804DD1846007840F001004C
:100460001870481CC1B22029EBDB11E01748007856
:100470004006000E154B1870104830F81100072880
:1004800004DD1846007840F001001870481CC1B225
:100490002829EBDB08480078094B1B781844094BE6
:1004A0001B781844084B1B781844C2B207480078E0
:1004B00042EA0020704700002C000020A400002029
:1004C0002D0000202E0000202F00002030000020F2
:1004D000034800780349097800EB012080B2704797
:1004E0002D0000202C00002070B5402050490860ED
:1004F000022000F0CDF840204D49091F0860482037
:100500004C49C8704A48143800F081F9002402E0D0
:10051000022000F0D5F846480C38006800F0400092
:1005200018B12046641CC828F2D3322C01D901200E
:1005300070BD002402E0012000F0C2F83C480C38F5
:10054000006800F0400018B92046641C6428F2D30B
:10055000082C01D30F2C01D90220E9E7002402E086
:10056000012000F0ADF832480C38006800F040007F
:1005700018B12046641C6428F2D3082C01D30F2C38
:1005800001D90320D4E700253EE0002402E0012049
:1005900000F096F826480C38006800F0400018B9C2
:1005A0002046641C1428F2D3102C13D94FF6FF7088
:1005B000214921F8150002E0012000F081F81C48D3
:1005C0000C38006800F04000E0B12046641C14289C
:1005D000F2D317E0002402E0012000F071F8144883
:1005E0000C38006800F0400018B12046641C142844
:1005F000F2D3102C01D2204601E04FF6FF700E49D5
:1006000021F81500681CC5B2282DBEDB00250AE0C4
:10061000094830F815004FF6FF71884201D10420D7
:1006200086E7681CC5B2282DF2DB002080E70000B9
:100630001418014032000020A40000200348007874
:100640000349097800EB012080B270472F00002099
:100650002E00002010B50121402000F07BFC10206E
:100660000449C8704020088003208870024800F0C8
:10067000CEF810BD3200002000180140704701B5CF
:1006800002E00098401E009000980028F9D108BDB3
:1006900070B50446084800684FF47A71B0FBF1F574
:1006A000284600F035FD601C0449086000BF03487F
:1006B00000680028FBD170BD000000203800002039
:1006C00070B50446084800680849B0FBF1F52846B3
:1006D00000F01EFD601C0649086000BF0448006869
:1006E0000028FBD170BD00000000002040420F0038
:1006F0003800002051B18200A2F1C042126842F0DD
:1007000001038200A2F1C042136009E08200A2F15D
:10071000C0421268034B1A408300A3F1C0431A6021
:1007200070470000FEFF0F00D0E901121143C268BC
:100730001143026911434269114382691143C2693D
:100740001143026A1143426A1143826A1143C26A29
:100750001143026B114302689200A2F1C042116082
:10076000816808290BD101688900A1F1C04109689D
:1007700041F0400201688900A1F1C0410A60416B6B
:100780000968426B526841EA0211426B926841EA81
:100790000221426B928941EA0241426B128A41EA8C
:1007A0000251426B127D41EA0261426B9269114330
:1007B0000268521C9200A2F1C0421160C16AB1F5F8
:1007C000804F1BD1816B0968826B526841EA02112C
:1007D000826B926841EA0221826B128A41EA0251DD
:1007E000826B127D41EA0261826B92691143026859
:1007F0009200A2F1C042C2F8041107E06FF070420B
:1008000001688900A1F1C041C1F8042170472DE9B8
:10081000F041024600250026002000230024002786
:1008200091F803C00CF00F0591F803C00CF0100C08
:10083000BCF1000F03D091F802C04CEA050591F815
:1008400000C0BCF1000F31D0146800202BE04FF045
:10085000010C0CFA00F3B1F800C00CEA03069E424A
:1008600020D183004FF00F0C0CFA03F7BC4305FABC
:1008700003FC4CEA040491F803C0BCF1280F06D134
:100880004FF0010C0CFA00FCC2F814C00AE091F819
:1008900003C0BCF1480F05D14FF0010C0CFA00FC6D
:1008A000C2F810C0401C0828D1D31460B1F800C0B1
:1008B000BCF1FF0F34DD546800202EE000F1080C7D
:1008C0004FF0010808FA0CF3B1F800C00CEA030677
:1008D0009E4221D183004FF00F0C0CFA03F7BC436A
:1008E00005FA03FC4CEA040491F803C0BCF1280F9C
:1008F00005D100F1080C08FA0CF8C2F8148091F840
:1009000003C0BCF1480F07D100F1080C4FF00108FB
:1009100008FA0CF8C2F81080401C0828CED35460A6
:10092000BDE8F081416170470161704700BFFEE79B
:1009300010B504462CB14FF480510548FFF7F2FF83
:1009400004E04FF480510248FFF7EEFF10BD0000B5
:10095000001401402DE9F05F81468A4614461D4689
:10096000DDF828B02B4622465146484600F023F9D0
:1009700004FB05F65F464FF000082C2000F078FAE3
:1009800000BF04E0384600F077FA08F10108B045EE
:10099000F8D300BFBDE8F09F2DE9F04780468946B7
:1009A0001546A5F1200000F0FF0A10230822494651
:1009B000404600F000F92C2000F05AFA002417E01D
:1009C0000D4800EB0A10065D00270DE006F001005F
:1009D00018B11F2000F050FA03E04FF6FF7000F04E
:1009E0004BFA7610781CC7B2082FEFDB601CC4B23C
:1009F000102CE5DBBDE8F0870015000870B5054652
:100A00000E46144617E028460830F02803DD00257E
:100A100006F1100086B230461030B0F5A07F01DD3F
:100A200000250026227831462846FFF7B5FF641CD2
:100A300005F1080085B220780028E4D170BD00B52A
:100A400097B00121080200F075FA02200190002001
:100A500002900520039000200490059006904FF02E
:100A60008050079000200890099008200A901020DC
:100A70000B9000200C900E900F9010904FF480502F
:100A80001190002012901390149001A815901690C8
:100A900008A8FFF749FE01210020FFF72BFE17B041
:100AA00000BD000008B50121084600F053FA0121FD
:100AB000602000F04FFA03208DF8020018208DF816
:100AC00003004CF20370ADF8000069462C48FFF7B4
:100AD0009EFE4FF68070ADF8000069462948FFF78A
:100AE00096FE03208DF8020018208DF803001020D8
:100AF000ADF8000069462248FFF789FE2020ADF8D6
:100B0000000069461E48FFF782FE0121202000F008
:100B100021FA8020ADF8000069461948FFF777FEFA
:100B20000121202000F016FA4FF40060ADF800001B
:100B300069461348FFF76BFE10208DF80300032071
:100B40008DF802000121402000F004FA0220ADF8E7
:100B5000000069460B48FFF75AFE10208DF803008D
:100B600003208DF802000121202000F0F3F94FF45A
:100B70008050ADF8000069460148FFF748FE08BD07
:100B8000001401400018014008B5FFF78BFFFFF784
:100B900056FF0120FFF7CCFE00F056F900F03CF8BC
:100BA0004FF6FF704FF4A073F0220021009008462A
:100BB000FFF7D0FE08BD2DE9F04104460D4616466C
:100BC0001F462A2000F054F9201200F055F9E0B237
:100BD00000F052F9A119491EC1F30F2000F04CF9A1
:100BE000A119491EC8B200F047F92B2000F040F9C6
:100BF000281200F041F9E8B200F03EF9E919491E67
:100C0000C1F30F2000F038F9E919491EC8B200F00D
:100C100033F9BDE8F081000010B5CF2000F028F9CD
:100C2000002000F029F9812000F026F9302000F0A2
:100C300023F9ED2000F01CF9642000F01DF90320D9
:100C400000F01AF9122000F017F9812000F014F9D1
:100C5000E82000F00DF9852000F00EF9102000F0DA
:100C60000BF9782000F008F9CB2000F001F93920C9
:100C700000F002F92C2000F0FFF8002000F0FCF852
:100C8000342000F0F9F8022000F0F6F8F72000F028
:100C9000EFF8202000F0F0F8EA2000F0E9F800205A
:100CA00000F0EAF8002000F0E7F8B12000F0E0F8EA
:100CB000002000F0E1F81B2000F0DEF8B62000F084
:100CC000D7F80A2000F0D8F8A22000F0D5F8C0200C
:100CD00000F0CEF8352000F0CFF8C12000F0C8F8C1
:100CE000112000F0C9F8C52000F0C2F8452000F03E
:100CF000C3F8452000F0C0F8C72000F0B9F8A220E2
:100D000000F0BAF8F22000F0B3F8002000F0B4F8D8
:100D1000262000F0ADF8012000F0AEF8E02000F051
:100D2000A7F80F2000F0A8F8262000F0A5F824204E
:100D300000F0A2F80B2000F09FF80E2000F09CF8C5
:100D4000092000F099F8542000F096F8A82000F04F
:100D500093F8462000F090F80C2000F08DF8172052
:100D600000F08AF8092000F087F80F2000F084F8DE
:100D7000072000F081F8002000F07EF8E12000F06C
:100D800077F8002000F078F8192000F075F81B20A3
:100D900000F072F8042000F06FF8102000F06CF8FA
:100DA000072000F069F82A2000F066F8472000F0DC
:100DB00063F8392000F060F8032000F05DF80620A9
:100DC00000F05AF8062000F057F8302000F054F8F0
:100DD000382000F051F80F2000F04EF8362000F0D7
:100DE00047F8C82000F048F82A2000F041F8002019
:100DF00000F042F8002000F03FF8002000F03CF83E
:100E0000EF2000F039F82B2000F032F8002000F03D
:100E100033F8002000F030F8012000F02DF83F20DA
:100E200000F02AF83A2000F023F8552000F024F8CA
:100E3000112000F01DF80348FFF721FC292000F0E5
:100E400017F810BDFCBF020010B502210648FFF7DD
:100E500069FD0648FFF713FC02210348FFF764FD14
:100E60000248FFF70CFC10BD00180140FCBF020057
:100E70004FF0C0410880704701490880704700006A
:100E80000000026010B50121102000F063F801217C
:100E9000880200F05FF84FF4004000F03FF81020A7
:100EA000184908800020C870032088701648FFF792
:100EB000AEFC1648FFF78CF9002015490860087150
:100EC00048714FF4602088600020C86001200874D9
:100ED0000E48FFF7CDF901210C48FFF76DF90B48DB
:100EE000FFF74AFA00BF0948FFF7B7F90028FAD11F
:100EF0000648FFF751FA00BF0448FFF797F90028AA
:100F0000FAD110BD2400002000100140002801404B
:100F10009000002000BFFEE77047704701460020A8
:100F2000034A506820F44040084350607047000076
:100F30000010024029B1064A52690243044B5A612B
:100F400004E0034A52698243014B5A617047000032
:100F50000010024029B1064A92690243044B9A618B
:100F600004E0034A92698243014B9A617047000092
:100F70000010024029B1064AD2680243044BDA60ED
:100F800004E0034AD2688243014BDA6070470000F4
:100F90000010024010B501211020FFF7DBFF0121F6
:100FA0004802FFF7D7FF4FF40040FFF7B7FF1020CC
:100FB000184908800020C870032088701648FFF781
:100FC00026FC1648FFF704F900201549086008714F
:100FD00048714FF4602088600020C86001200874C8
:100FE0000E48FFF745F901210C48FFF7E5F80B48DB
:100FF000FFF7C2F900BF0948FFF72FF90028FAD11F
:101000000648FFF7C9F900BF0448FFF70FF90028A9
:10101000FAD110BD3C000020001001400024014026
:10102000F4000020704710B500F002F810BD000079
:101030000CB50020019000903348006840F48030E7
:101040003149086000BF3048006800F4003000906B
:101050000198401C0190009818B90198B0F5A06F54
:10106000F1D12948006800F4003010B1012000904F
:1010700001E0002000900098012843D12348006837
:1010800040F01000214908600846006820F0030085
:1010900008600846006840F0020008601A4840688E
:1010A000194948600846406848600846406840F46E
:1010B000806048600846406820F47C10486008461C
:1010C000406840F4E81048600846006840F08070CE
:1010D000086000BF0C48006800F000700028F9D0DC
:1010E0000948406820F00300074948600846406806
:1010F00040F00200486000BF0348406800F00C0068
:101100000828F9D10CBD0000001002400020024068
:1011100030B50146B1F1807F01D3012030BD21F00F
:101120007F40401E4FF0E022506150170F220028F0
:1011300007DA13071D0E094B00F00F04241F1D557D
:1011400003E013071C0E064B1C5400BF00204FF099
:10115000E0229061072010610020DFE718ED00E039
:1011600000E400E00448006820B103480068401E25
:1011700001490860704700003800002010B513488E
:10118000006840F0010011490860084640681049B5
:1011900008400E494860084600680E4908400B495F
:1011A00008600846006820F480200860084640680F
:1011B00020F4FE0048604FF41F008860FFF733FF03
:1011C0004FF000600449086010BD000000100240AC
:1011D0000000FFF8FFFFF6FE08ED00E000BFFEE7AD
:1011E0000FB4084B10B504A902AA039800F01CF82C
:1011F000044602A9002000F0C1F8204610BC5DF8AA
:1012000014FB00007D13000802E008C8121F08C18B
:10121000002AFAD170477047002001E001C1121F77
:10122000002AFBD1704700002DE9FF4F89B09B4693
:101230000446002506E025280BD05A460B99904716
:10124000641C6D1C20780028F5D10DB02846BDE83F
:10125000F08F0027B8460122474900E0074314F801
:10126000013F203B02FA03F00842F7D120782E28F4
:1012700019D114F8010F47F004072A280ED06FF097
:101280002F022078A0F1300109290CD808EB880141
:1012900002EB410100EB0108641CF2E70A98641CB0
:1012A00050F8048B0A9020780028CED0642808D00B
:1012B000692806D075281ED05A460B9990476D1C98
:1012C00058E00A994FF00A0901C90A91002802DA88
:1012D00040422D2102E0390504D52B218DF8201044
:1012E000012103E0F90704D02021F7E78A4608AE80
:1012F0000DE00021FAE70A994FF00A0901C90A91A5
:10130000F7E74946FEF730FF303106F8011D0028A7
:10131000F7D1ADEB060000F12009780701D44FF0BA
:101320000108C84502DDA8EB090000E00020804666
:10133000002706E008A85A46C05D0B9990476D1C2F
:101340007F1C5745F6DB04E030205A460B99904746
:101350006D1CB8F10001A8F10108F5DC05E016F8F4
:10136000010B5A460B9990476D1CB9F10001A9F188
:101370000109F4DC641C65E7092801000A68531CB4
:101380000B6010707047000010B504460023012266
:101390000E210948FEF794FF01210748FEF7F1FFEF
:1013A00000BF02210448FEF74FFF0028F9D0024891
:1013B000FEF746FF10BD00000024014010B50446B2
:1013C000002301220F210948FEF77AFF0121074877
:1013D000FEF7D7FF00BF02210448FEF735FF0028C3
:1013E000F9D00248FEF72CFF10BD00000028014094
:1013F000FFF7CAFBFFF7CEFDFFF744FD50E0FFF714
:1014000029F9FFF771F8274908600846006858B9BC
:10141000FEF7CAFF23490860FFF710F92249088048
:10142000FFF756F8214908800E20FFF7ADFF20494D
:1014300008800F20FFF7C2FF1E4908801A48028863
:101440001DA12048FFF7CCFE184802881EA12248A3
:10145000FFF7C6FE1648028820A12448FFF7C0FE09
:101460001448048804EBD470421021A12348FFF7EC
:10147000B7FE144A19210A20FFF7C0FA164A28219C
:101480000A20FFF7BBFA194A37210A20FFF7B6FAFC
:101490001A4A46210A20FFF7B1FA3220FFF7F8F87E
:1014A000ADE70000180000201E0000201C000020F6
:1014B000200000202200002054656D70203A202575
:1014C000640000005000002048756D6964697479FB
:1014D000203A202564000000600000204D6F6973F1
:1014E00074757265203A20256400000070000020A9
:1014F0004C69676874203A20256400008000002051
:1015000000000000000000000000000000000000DB
:10151000000000183C3C3C1818001818000000009F
:101520000000006666660000000000000000000089
:101530000000006C6CFE6C6C6CFE6C6C00000000BB
:101540000018183C66060C183060663C181800003D
:1015500000000E1B5B6E30180C76DAD870000000AD
:101560000000001C36361C06F66666DC0000000033
:101570000000001818180000000000000000000023
:101580000000003018180C0C0C0C0C18183000005F
:101590000000000C1818303030303018180C0000E3
:1015A00000000000006C38FE386C000000000000F5
:1015B000000000000018187E18180000000000004D
:1015C0000000000000000000000038383018000063
:1015D000000000000000007E00000000000000008D
:1015E000000000000000000000003838000000008B
:1015F0000000006060303018180C0C060600000077
:1016000000000078CCECECCCDCDCCC7800000000F6
:1016100000000030383E3030303030300000000004
:101620000000003C66666030180C067E000000007A
:101630000000003C666660386066663C00000000A2
:101640000000000C0C6C6C6C66FE6060000000001A
:101650000000007E0606063E6060301E00000000AE
:1016600000000038180C3E666666663C000000000C
:101670000000007E60303018180C0C0C00000000D8
:101680000000003C66666E3C7666663C000000002A
:101690000000003C666666667C30181C0000000096
:1016A000000000000038380000003838000000005A
:1016B0000000000000383800000038383018000002
:1016C0000000006030180C060C18306000000000AC
:1016D0000000000000007E007E000000000000000E
:1016E000000000060C18306030180C0600000000E6
:1016F0000000003C66663018180018180000000052
:101700000000007EC3C3F3DBDBF303FE0000000038
:10171000000000183C6666667E6666660000000093
:101720000000003E6666663E6666663E000000009B
:101730000000003C666606060666663C0000000087
:101740000000001E366666666666361E00000000F3
:101750000000007E0606063E0606067E000000002B
:101760000000007E0606063E060606060000000093
:101770000000003C666606067666667C0000000097
:10178000000000666666667E6666666600000000AB
:101790000000003C181818181818183C0000000029
:1017A00000000060606060606066663C00000000F1
:1017B000000000666636361E36366666000000009B
:1017C00000000006060606060606067E000000006B
:1017D000000000C6C6EED6D6D6C6C6C600000000BB
:1017E000000000C6C6CEDEF6E6C6C6C60000000093
:1017F0000000003C666666666666663C00000000A7
:101800000000003E6666663E060606060000000012
:101810000000003C666666666666663C30600000F6
:101820000000003E6666663E3666666600000000A2
:101830000000003C66060C183060663C00000000AA
:101840000000007E1818181818181818000000005A
:1018500000000066666666666666663C000000001C
:10186000000000666666666666663C18000000005A
:10187000000000C6C6C6D6D6D66C6C6C0000000050
:1018800000000066662C18183466666600000000CA
:10189000000000666666663C181818180000000014
:1018A0000000007E606030180C06067E000000001C
:1018B0000000003C0C0C0C0C0C0C0C0C0C0C3C0038
:1018C00000000006060C0C181830306060000000A4
:1018D0000000003C303030303030303030303C00B0
:1018E00000183C660000000000000000000000003E
:1018F0000000000000000000000000000000FF00E9
:10190000001C183000000000000000000000000073
:1019100000000000003C60607C66667C0000000007
:1019200000000006063E66666666663E0000000031
:1019300000000000003C66060606663C0000000051
:1019400000000060607C66666666667C00000000E1
:1019500000000000003C66667E06063C00000000B9
:10196000000000780C0C0C7E0C0C0C0C000000002D
:1019700000000000007C66666666667C60603E0073
:1019800000000006063E66666666666600000000A9
:1019900000001818001E18181818187E0000000003
:1019A00000003030003C30303030303030301E00FD
:1019B00000000006066666361E36666600000000F9
:1019C0000000001E181818181818187E00000000D3
:1019D00000000000007ED6D6D6D6D6C60000000095
:1019E00000000000003E6666666666660000000055
:1019F00000000000003C66666666663C0000000071
:101A000000000000003E66666666663E060606004A
:101A100000000000007C66666666667C60606000B0
:101A2000000000000066760E0606060600000000B4
:101A300000000000007C06063C60603E00000000E4
:101A40000000000C0C7E0C0C0C0C0C78000000004C
:101A500000000000006666666666667C00000000A6
:101A6000000000000066666666663C180000000024
:101A70000000000000C6D6D6D6D66C6C0000000070
:101A8000000000000066663C183C6666000000002E
:101A900000000000006666666666663C30180F004F
:101AA00000000000007E6030180C067E0000000080
:101AB000000000301818180C060C18181830000018
:101AC00000000018181818181818181818181800F6
:101AD0000000000C1818183060301818180C00009E
:101AE0000000008EDB71000000000000000000001C
:101AF000101B000800000020400000000812000831
:101B0000501B000840000020C80400001812000804
:101B100000A24A04000000000000000001020304CB
:101B20000607080900000000000000000000000097
:101B300000000000000000000000000000000000A5
:101B40000000000000000000000000000000000095
:0400000508000131BD
:00000001FF
